{"contracts/WakeMeUp.sol":{"WakeMeUp":{"abi":[{"inputs":[{"internalType":"address","name":"_account","type":"address"}],"name":"balanceOfAccount","outputs":[{"internalType":"uint256","name":"","type":"uint256"}],"stateMutability":"view","type":"function"},{"inputs":[{"internalType":"address","name":"_account","type":"address"}],"name":"checkWithdraw","outputs":[{"internalType":"bool","name":"","type":"bool"}],"stateMutability":"view","type":"function"},{"inputs":[],"name":"getContractBalance","outputs":[{"internalType":"uint256","name":"","type":"uint256"}],"stateMutability":"view","type":"function"},{"inputs":[{"internalType":"address","name":"_account","type":"address"}],"name":"getWakeupSchedule","outputs":[{"components":[{"internalType":"uint8","name":"wakeupWeekHour","type":"uint8"},{"internalType":"uint8","name":"wakeupWeekMinute","type":"uint8"},{"internalType":"uint8","name":"wakeupWeekendHour","type":"uint8"},{"internalType":"uint8","name":"wakeupWeekendMinute","type":"uint8"}],"internalType":"struct WakeMeUp.WakeupSchedule","name":"","type":"tuple"}],"stateMutability":"view","type":"function"},{"inputs":[{"internalType":"uint8","name":"_wakeupWeekHour","type":"uint8"},{"internalType":"uint8","name":"_wakeupWeekMinute","type":"uint8"},{"internalType":"uint8","name":"_wakeupWeekendHour","type":"uint8"},{"internalType":"uint8","name":"_wakeupWeekendMinute","type":"uint8"}],"name":"scheduleWakeup","outputs":[],"stateMutability":"nonpayable","type":"function"},{"inputs":[],"name":"withdraw","outputs":[],"stateMutability":"nonpayable","type":"function"},{"stateMutability":"payable","type":"receive"}],"evm":{"bytecode":{"linkReferences":{},"object":"608060405234801561001057600080fd5b5061150e806100206000396000f3fe6080604052600436106100595760003560e01c80633ccfd60b146100f75780636f9fb98a1461010e5780637db43bcc14610139578063ad1f3bdc14610176578063c237d392146101b3578063c7a033be146101f0576100f2565b366100f25766b1a2bc2ec5000034146100a7576040517f08c379a000000000000000000000000000000000000000000000000000000000815260040161009e90610fbf565b60405180910390fd5b66b1a2bc2ec500006000803373ffffffffffffffffffffffffffffffffffffffff1673ffffffffffffffffffffffffffffffffffffffff168152602001908152602001600020819055005b600080fd5b34801561010357600080fd5b5061010c610219565b005b34801561011a57600080fd5b5061012361041d565b6040516101309190610ff8565b60405180910390f35b34801561014557600080fd5b50610160600480360381019061015b9190611076565b610425565b60405161016d9190611114565b60405180910390f35b34801561018257600080fd5b5061019d60048036038101906101989190611076565b6104f2565b6040516101aa919061114a565b60405180910390f35b3480156101bf57600080fd5b506101da60048036038101906101d59190611076565b610823565b6040516101e79190610ff8565b60405180910390f35b3480156101fc57600080fd5b5061021760048036038101906102129190611191565b61086b565b005b610222336104f2565b610261576040517f08c379a000000000000000000000000000000000000000000000000000000000815260040161025890611244565b60405180910390fd5b6611c37937e080006000803373ffffffffffffffffffffffffffffffffffffffff1673ffffffffffffffffffffffffffffffffffffffff1681526020019081526020016000205410156102e9576040517f08c379a00000000000000000000000000000000000000000000000000000000081526004016102e0906112b0565b60405180910390fd5b60405180606001604052806102fd42610964565b61ffff16815260200161030f42610a7b565b60ff16815260200161032042610a91565b60ff16815250600260003373ffffffffffffffffffffffffffffffffffffffff1673ffffffffffffffffffffffffffffffffffffffff16815260200190815260200160002060008201518160000160006101000a81548161ffff021916908361ffff16021790555060208201518160000160026101000a81548160ff021916908360ff16021790555060408201518160000160036101000a81548160ff021916908360ff1602179055509050503373ffffffffffffffffffffffffffffffffffffffff166108fc6611c37937e080009081150290604051600060405180830381858888f1935050505015801561041a573d6000803e3d6000fd5b50565b600047905090565b61042d610edb565b600160008373ffffffffffffffffffffffffffffffffffffffff1673ffffffffffffffffffffffffffffffffffffffff1681526020019081526020016000206040518060800160405290816000820160009054906101000a900460ff1660ff1660ff1681526020016000820160019054906101000a900460ff1660ff1660ff1681526020016000820160029054906101000a900460ff1660ff1660ff1681526020016000820160039054906101000a900460ff1660ff1660ff16815250509050919050565b6000806104fe42610964565b9050600061050b42610a7b565b9050600061051842610a91565b9050600260008673ffffffffffffffffffffffffffffffffffffffff1673ffffffffffffffffffffffffffffffffffffffff16815260200190815260200160002060000160009054906101000a900461ffff1661ffff168361ffff161480156105d55750600260008673ffffffffffffffffffffffffffffffffffffffff1673ffffffffffffffffffffffffffffffffffffffff16815260200190815260200160002060000160029054906101000a900460ff1660ff168260ff16145b80156106355750600260008673ffffffffffffffffffffffffffffffffffffffff1673ffffffffffffffffffffffffffffffffffffffff16815260200190815260200160002060000160039054906101000a900460ff1660ff168160ff16145b15610646576000935050505061081e565b600061065142610aa7565b9050600061065e42610ad4565b9050600080600661066e42610af5565b60ff16101561072057600160008a73ffffffffffffffffffffffffffffffffffffffff1673ffffffffffffffffffffffffffffffffffffffff16815260200190815260200160002060000160009054906101000a900460ff169150600160008a73ffffffffffffffffffffffffffffffffffffffff1673ffffffffffffffffffffffffffffffffffffffff16815260200190815260200160002060000160019054906101000a900460ff1690506107c5565b600160008a73ffffffffffffffffffffffffffffffffffffffff1673ffffffffffffffffffffffffffffffffffffffff16815260200190815260200160002060000160029054906101000a900460ff169150600160008a73ffffffffffffffffffffffffffffffffffffffff1673ffffffffffffffffffffffffffffffffffffffff16815260200190815260200160002060000160039054906101000a900460ff1690505b8160ff168460ff1610156107e357600197505050505050505061081e565b8160ff168460ff161480156107fd57508060ff168360ff16105b1561081257600197505050505050505061081e565b60009750505050505050505b919050565b60008060008373ffffffffffffffffffffffffffffffffffffffff1673ffffffffffffffffffffffffffffffffffffffff168152602001908152602001600020549050919050565b60405180608001604052808560ff1681526020018460ff1681526020018360ff1681526020018260ff16815250600160003373ffffffffffffffffffffffffffffffffffffffff1673ffffffffffffffffffffffffffffffffffffffff16815260200190815260200160002060008201518160000160006101000a81548160ff021916908360ff16021790555060208201518160000160016101000a81548160ff021916908360ff16021790555060408201518160000160026101000a81548160ff021916908360ff16021790555060608201518160000160036101000a81548160ff021916908360ff16021790555090505050505050565b600080600090506000806301e133808561097e919061132e565b6107b261ffff1661098f919061135f565b91506109a06107b261ffff16610b25565b6109ad8361ffff16610b25565b6109b79190611393565b9050806301e285006109c991906113c7565b836109d4919061135f565b9250806107b2836109e59190611417565b61ffff166109f39190611393565b6301e13380610a0291906113c7565b83610a0d919061135f565b92505b84831115610a7057610a2d600183610a289190611417565b610b79565b15610a49576301e2850083610a429190611393565b9250610a5c565b6301e1338083610a599190611393565b92505b600182610a699190611417565b9150610a10565b819350505050919050565b6000610a8682610be8565b602001519050919050565b6000610a9c82610be8565b604001519050919050565b60006018603c8084610ab9919061132e565b610ac3919061132e565b610acd919061144d565b9050919050565b6000603c8083610ae4919061132e565b610aee919061144d565b9050919050565b6000600760046201518084610b0a919061132e565b610b14919061135f565b610b1e919061144d565b9050919050565b6000600182610b349190611393565b915061019082610b44919061132e565b606483610b51919061132e565b600484610b5e919061132e565b610b689190611393565b610b72919061135f565b9050919050565b600080600483610b89919061147e565b61ffff1614610b9b5760009050610be3565b6000606483610baa919061147e565b61ffff1614610bbc5760019050610be3565b600061019083610bcc919061147e565b61ffff1614610bde5760009050610be3565b600190505b919050565b610bf0610f0f565b60008080610bfd85610964565b846000019061ffff16908161ffff1681525050610c1f6107b261ffff16610b25565b610c30856000015161ffff16610b25565b610c3a9190611393565b9150816301e28500610c4c91906113c7565b83610c57919061135f565b9250816107b28560000151610c6c9190611417565b61ffff16610c7a9190611393565b6301e13380610c8991906113c7565b83610c94919061135f565b92506000600191505b600c8260ff1611610d1457610cb6828660000151610df9565b60ff1662015180610cc791906113c7565b9050858482610cd6919061135f565b1115610cf35781856020019060ff16908160ff1681525050610d14565b8084610cff919061135f565b93508180610d0c906114af565b925050610c9d565b600191505b610d2b85602001518660000151610df9565b60ff168260ff1611610d8857858462015180610d47919061135f565b1115610d645781856040019060ff16908160ff1681525050610d88565b6201518084610d73919061135f565b93508180610d80906114af565b925050610d19565b610d9186610aa7565b856060019060ff16908160ff1681525050610dab86610ad4565b856080019060ff16908160ff1681525050610dc586610ec5565b8560a0019060ff16908160ff1681525050610ddf86610af5565b8560c0019060ff16908160ff168152505050505050919050565b600060018360ff161480610e10575060038360ff16145b80610e1e575060058360ff16145b80610e2c575060078360ff16145b80610e3a575060088360ff16145b80610e485750600a8360ff16145b80610e565750600c8360ff16145b15610e6457601f9050610ebf565b60048360ff161480610e79575060068360ff16145b80610e87575060098360ff16145b80610e955750600b8360ff16145b15610ea357601e9050610ebf565b610eac82610b79565b15610eba57601d9050610ebf565b601c90505b92915050565b6000603c82610ed4919061144d565b9050919050565b6040518060800160405280600060ff168152602001600060ff168152602001600060ff168152602001600060ff1681525090565b6040518060e00160405280600061ffff168152602001600060ff168152602001600060ff168152602001600060ff168152602001600060ff168152602001600060ff168152602001600060ff1681525090565b600082825260208201905092915050565b7f57726f6e6720416d6f756e740000000000000000000000000000000000000000600082015250565b6000610fa9600c83610f62565b9150610fb482610f73565b602082019050919050565b60006020820190508181036000830152610fd881610f9c565b9050919050565b6000819050919050565b610ff281610fdf565b82525050565b600060208201905061100d6000830184610fe9565b92915050565b600080fd5b600073ffffffffffffffffffffffffffffffffffffffff82169050919050565b600061104382611018565b9050919050565b61105381611038565b811461105e57600080fd5b50565b6000813590506110708161104a565b92915050565b60006020828403121561108c5761108b611013565b5b600061109a84828501611061565b91505092915050565b600060ff82169050919050565b6110b9816110a3565b82525050565b6080820160008201516110d560008501826110b0565b5060208201516110e860208501826110b0565b5060408201516110fb60408501826110b0565b50606082015161110e60608501826110b0565b50505050565b600060808201905061112960008301846110bf565b92915050565b60008115159050919050565b6111448161112f565b82525050565b600060208201905061115f600083018461113b565b92915050565b61116e816110a3565b811461117957600080fd5b50565b60008135905061118b81611165565b92915050565b600080600080608085870312156111ab576111aa611013565b5b60006111b98782880161117c565b94505060206111ca8782880161117c565b93505060406111db8782880161117c565b92505060606111ec8782880161117c565b91505092959194509250565b7f596f7520617265206e6f7420616c6c6f77656420746f20776974686472617700600082015250565b600061122e601f83610f62565b9150611239826111f8565b602082019050919050565b6000602082019050818103600083015261125d81611221565b9050919050565b7f596f75722062616c616e6365206973206e6f7420656e6f756768000000000000600082015250565b600061129a601a83610f62565b91506112a582611264565b602082019050919050565b600060208201905081810360008301526112c98161128d565b9050919050565b7f4e487b7100000000000000000000000000000000000000000000000000000000600052601260045260246000fd5b7f4e487b7100000000000000000000000000000000000000000000000000000000600052601160045260246000fd5b600061133982610fdf565b915061134483610fdf565b925082611354576113536112d0565b5b828204905092915050565b600061136a82610fdf565b915061137583610fdf565b925082820190508082111561138d5761138c6112ff565b5b92915050565b600061139e82610fdf565b91506113a983610fdf565b92508282039050818111156113c1576113c06112ff565b5b92915050565b60006113d282610fdf565b91506113dd83610fdf565b92508282026113eb81610fdf565b91508282048414831517611402576114016112ff565b5b5092915050565b600061ffff82169050919050565b600061142282611409565b915061142d83611409565b9250828203905061ffff811115611447576114466112ff565b5b92915050565b600061145882610fdf565b915061146383610fdf565b925082611473576114726112d0565b5b828206905092915050565b600061148982611409565b915061149483611409565b9250826114a4576114a36112d0565b5b828206905092915050565b60006114ba826110a3565b915060ff82036114cd576114cc6112ff565b5b60018201905091905056fea26469706673582212209899fc13a4e84561435a434df8492582ed6f7c04b939929982e98c1f24baf03f64736f6c63430008130033","opcodes":"PUSH1 0x80 PUSH1 0x40 MSTORE CALLVALUE DUP1 ISZERO PUSH2 0x10 JUMPI PUSH1 0x0 DUP1 REVERT JUMPDEST POP PUSH2 0x150E DUP1 PUSH2 0x20 PUSH1 0x0 CODECOPY PUSH1 0x0 RETURN INVALID PUSH1 0x80 PUSH1 0x40 MSTORE PUSH1 0x4 CALLDATASIZE LT PUSH2 0x59 JUMPI PUSH1 0x0 CALLDATALOAD PUSH1 0xE0 SHR DUP1 PUSH4 0x3CCFD60B EQ PUSH2 0xF7 JUMPI DUP1 PUSH4 0x6F9FB98A EQ PUSH2 0x10E JUMPI DUP1 PUSH4 0x7DB43BCC EQ PUSH2 0x139 JUMPI DUP1 PUSH4 0xAD1F3BDC EQ PUSH2 0x176 JUMPI DUP1 PUSH4 0xC237D392 EQ PUSH2 0x1B3 JUMPI DUP1 PUSH4 0xC7A033BE EQ PUSH2 0x1F0 JUMPI PUSH2 0xF2 JUMP JUMPDEST CALLDATASIZE PUSH2 0xF2 JUMPI PUSH7 0xB1A2BC2EC50000 CALLVALUE EQ PUSH2 0xA7 JUMPI PUSH1 0x40 MLOAD PUSH32 0x8C379A000000000000000000000000000000000000000000000000000000000 DUP2 MSTORE PUSH1 0x4 ADD PUSH2 0x9E SWAP1 PUSH2 0xFBF JUMP JUMPDEST PUSH1 0x40 MLOAD DUP1 SWAP2 SUB SWAP1 REVERT JUMPDEST PUSH7 0xB1A2BC2EC50000 PUSH1 0x0 DUP1 CALLER PUSH20 0xFFFFFFFFFFFFFFFFFFFFFFFFFFFFFFFFFFFFFFFF AND PUSH20 0xFFFFFFFFFFFFFFFFFFFFFFFFFFFFFFFFFFFFFFFF AND DUP2 MSTORE PUSH1 0x20 ADD SWAP1 DUP2 MSTORE PUSH1 0x20 ADD PUSH1 0x0 KECCAK256 DUP2 SWAP1 SSTORE STOP JUMPDEST PUSH1 0x0 DUP1 REVERT JUMPDEST CALLVALUE DUP1 ISZERO PUSH2 0x103 JUMPI PUSH1 0x0 DUP1 REVERT JUMPDEST POP PUSH2 0x10C PUSH2 0x219 JUMP JUMPDEST STOP JUMPDEST CALLVALUE DUP1 ISZERO PUSH2 0x11A JUMPI PUSH1 0x0 DUP1 REVERT JUMPDEST POP PUSH2 0x123 PUSH2 0x41D JUMP JUMPDEST PUSH1 0x40 MLOAD PUSH2 0x130 SWAP2 SWAP1 PUSH2 0xFF8 JUMP JUMPDEST PUSH1 0x40 MLOAD DUP1 SWAP2 SUB SWAP1 RETURN JUMPDEST CALLVALUE DUP1 ISZERO PUSH2 0x145 JUMPI PUSH1 0x0 DUP1 REVERT JUMPDEST POP PUSH2 0x160 PUSH1 0x4 DUP1 CALLDATASIZE SUB DUP2 ADD SWAP1 PUSH2 0x15B SWAP2 SWAP1 PUSH2 0x1076 JUMP JUMPDEST PUSH2 0x425 JUMP JUMPDEST PUSH1 0x40 MLOAD PUSH2 0x16D SWAP2 SWAP1 PUSH2 0x1114 JUMP JUMPDEST PUSH1 0x40 MLOAD DUP1 SWAP2 SUB SWAP1 RETURN JUMPDEST CALLVALUE DUP1 ISZERO PUSH2 0x182 JUMPI PUSH1 0x0 DUP1 REVERT JUMPDEST POP PUSH2 0x19D PUSH1 0x4 DUP1 CALLDATASIZE SUB DUP2 ADD SWAP1 PUSH2 0x198 SWAP2 SWAP1 PUSH2 0x1076 JUMP JUMPDEST PUSH2 0x4F2 JUMP JUMPDEST PUSH1 0x40 MLOAD PUSH2 0x1AA SWAP2 SWAP1 PUSH2 0x114A JUMP JUMPDEST PUSH1 0x40 MLOAD DUP1 SWAP2 SUB SWAP1 RETURN JUMPDEST CALLVALUE DUP1 ISZERO PUSH2 0x1BF JUMPI PUSH1 0x0 DUP1 REVERT JUMPDEST POP PUSH2 0x1DA PUSH1 0x4 DUP1 CALLDATASIZE SUB DUP2 ADD SWAP1 PUSH2 0x1D5 SWAP2 SWAP1 PUSH2 0x1076 JUMP JUMPDEST PUSH2 0x823 JUMP JUMPDEST PUSH1 0x40 MLOAD PUSH2 0x1E7 SWAP2 SWAP1 PUSH2 0xFF8 JUMP JUMPDEST PUSH1 0x40 MLOAD DUP1 SWAP2 SUB SWAP1 RETURN JUMPDEST CALLVALUE DUP1 ISZERO PUSH2 0x1FC JUMPI PUSH1 0x0 DUP1 REVERT JUMPDEST POP PUSH2 0x217 PUSH1 0x4 DUP1 CALLDATASIZE SUB DUP2 ADD SWAP1 PUSH2 0x212 SWAP2 SWAP1 PUSH2 0x1191 JUMP JUMPDEST PUSH2 0x86B JUMP JUMPDEST STOP JUMPDEST PUSH2 0x222 CALLER PUSH2 0x4F2 JUMP JUMPDEST PUSH2 0x261 JUMPI PUSH1 0x40 MLOAD PUSH32 0x8C379A000000000000000000000000000000000000000000000000000000000 DUP2 MSTORE PUSH1 0x4 ADD PUSH2 0x258 SWAP1 PUSH2 0x1244 JUMP JUMPDEST PUSH1 0x40 MLOAD DUP1 SWAP2 SUB SWAP1 REVERT JUMPDEST PUSH7 0x11C37937E08000 PUSH1 0x0 DUP1 CALLER PUSH20 0xFFFFFFFFFFFFFFFFFFFFFFFFFFFFFFFFFFFFFFFF AND PUSH20 0xFFFFFFFFFFFFFFFFFFFFFFFFFFFFFFFFFFFFFFFF AND DUP2 MSTORE PUSH1 0x20 ADD SWAP1 DUP2 MSTORE PUSH1 0x20 ADD PUSH1 0x0 KECCAK256 SLOAD LT ISZERO PUSH2 0x2E9 JUMPI PUSH1 0x40 MLOAD PUSH32 0x8C379A000000000000000000000000000000000000000000000000000000000 DUP2 MSTORE PUSH1 0x4 ADD PUSH2 0x2E0 SWAP1 PUSH2 0x12B0 JUMP JUMPDEST PUSH1 0x40 MLOAD DUP1 SWAP2 SUB SWAP1 REVERT JUMPDEST PUSH1 0x40 MLOAD DUP1 PUSH1 0x60 ADD PUSH1 0x40 MSTORE DUP1 PUSH2 0x2FD TIMESTAMP PUSH2 0x964 JUMP JUMPDEST PUSH2 0xFFFF AND DUP2 MSTORE PUSH1 0x20 ADD PUSH2 0x30F TIMESTAMP PUSH2 0xA7B JUMP JUMPDEST PUSH1 0xFF AND DUP2 MSTORE PUSH1 0x20 ADD PUSH2 0x320 TIMESTAMP PUSH2 0xA91 JUMP JUMPDEST PUSH1 0xFF AND DUP2 MSTORE POP PUSH1 0x2 PUSH1 0x0 CALLER PUSH20 0xFFFFFFFFFFFFFFFFFFFFFFFFFFFFFFFFFFFFFFFF AND PUSH20 0xFFFFFFFFFFFFFFFFFFFFFFFFFFFFFFFFFFFFFFFF AND DUP2 MSTORE PUSH1 0x20 ADD SWAP1 DUP2 MSTORE PUSH1 0x20 ADD PUSH1 0x0 KECCAK256 PUSH1 0x0 DUP3 ADD MLOAD DUP2 PUSH1 0x0 ADD PUSH1 0x0 PUSH2 0x100 EXP DUP2 SLOAD DUP2 PUSH2 0xFFFF MUL NOT AND SWAP1 DUP4 PUSH2 0xFFFF AND MUL OR SWAP1 SSTORE POP PUSH1 0x20 DUP3 ADD MLOAD DUP2 PUSH1 0x0 ADD PUSH1 0x2 PUSH2 0x100 EXP DUP2 SLOAD DUP2 PUSH1 0xFF MUL NOT AND SWAP1 DUP4 PUSH1 0xFF AND MUL OR SWAP1 SSTORE POP PUSH1 0x40 DUP3 ADD MLOAD DUP2 PUSH1 0x0 ADD PUSH1 0x3 PUSH2 0x100 EXP DUP2 SLOAD DUP2 PUSH1 0xFF MUL NOT AND SWAP1 DUP4 PUSH1 0xFF AND MUL OR SWAP1 SSTORE POP SWAP1 POP POP CALLER PUSH20 0xFFFFFFFFFFFFFFFFFFFFFFFFFFFFFFFFFFFFFFFF AND PUSH2 0x8FC PUSH7 0x11C37937E08000 SWAP1 DUP2 ISZERO MUL SWAP1 PUSH1 0x40 MLOAD PUSH1 0x0 PUSH1 0x40 MLOAD DUP1 DUP4 SUB DUP2 DUP6 DUP9 DUP9 CALL SWAP4 POP POP POP POP ISZERO DUP1 ISZERO PUSH2 0x41A JUMPI RETURNDATASIZE PUSH1 0x0 DUP1 RETURNDATACOPY RETURNDATASIZE PUSH1 0x0 REVERT JUMPDEST POP JUMP JUMPDEST PUSH1 0x0 SELFBALANCE SWAP1 POP SWAP1 JUMP JUMPDEST PUSH2 0x42D PUSH2 0xEDB JUMP JUMPDEST PUSH1 0x1 PUSH1 0x0 DUP4 PUSH20 0xFFFFFFFFFFFFFFFFFFFFFFFFFFFFFFFFFFFFFFFF AND PUSH20 0xFFFFFFFFFFFFFFFFFFFFFFFFFFFFFFFFFFFFFFFF AND DUP2 MSTORE PUSH1 0x20 ADD SWAP1 DUP2 MSTORE PUSH1 0x20 ADD PUSH1 0x0 KECCAK256 PUSH1 0x40 MLOAD DUP1 PUSH1 0x80 ADD PUSH1 0x40 MSTORE SWAP1 DUP2 PUSH1 0x0 DUP3 ADD PUSH1 0x0 SWAP1 SLOAD SWAP1 PUSH2 0x100 EXP SWAP1 DIV PUSH1 0xFF AND PUSH1 0xFF AND PUSH1 0xFF AND DUP2 MSTORE PUSH1 0x20 ADD PUSH1 0x0 DUP3 ADD PUSH1 0x1 SWAP1 SLOAD SWAP1 PUSH2 0x100 EXP SWAP1 DIV PUSH1 0xFF AND PUSH1 0xFF AND PUSH1 0xFF AND DUP2 MSTORE PUSH1 0x20 ADD PUSH1 0x0 DUP3 ADD PUSH1 0x2 SWAP1 SLOAD SWAP1 PUSH2 0x100 EXP SWAP1 DIV PUSH1 0xFF AND PUSH1 0xFF AND PUSH1 0xFF AND DUP2 MSTORE PUSH1 0x20 ADD PUSH1 0x0 DUP3 ADD PUSH1 0x3 SWAP1 SLOAD SWAP1 PUSH2 0x100 EXP SWAP1 DIV PUSH1 0xFF AND PUSH1 0xFF AND PUSH1 0xFF AND DUP2 MSTORE POP POP SWAP1 POP SWAP2 SWAP1 POP JUMP JUMPDEST PUSH1 0x0 DUP1 PUSH2 0x4FE TIMESTAMP PUSH2 0x964 JUMP JUMPDEST SWAP1 POP PUSH1 0x0 PUSH2 0x50B TIMESTAMP PUSH2 0xA7B JUMP JUMPDEST SWAP1 POP PUSH1 0x0 PUSH2 0x518 TIMESTAMP PUSH2 0xA91 JUMP JUMPDEST SWAP1 POP PUSH1 0x2 PUSH1 0x0 DUP7 PUSH20 0xFFFFFFFFFFFFFFFFFFFFFFFFFFFFFFFFFFFFFFFF AND PUSH20 0xFFFFFFFFFFFFFFFFFFFFFFFFFFFFFFFFFFFFFFFF AND DUP2 MSTORE PUSH1 0x20 ADD SWAP1 DUP2 MSTORE PUSH1 0x20 ADD PUSH1 0x0 KECCAK256 PUSH1 0x0 ADD PUSH1 0x0 SWAP1 SLOAD SWAP1 PUSH2 0x100 EXP SWAP1 DIV PUSH2 0xFFFF AND PUSH2 0xFFFF AND DUP4 PUSH2 0xFFFF AND EQ DUP1 ISZERO PUSH2 0x5D5 JUMPI POP PUSH1 0x2 PUSH1 0x0 DUP7 PUSH20 0xFFFFFFFFFFFFFFFFFFFFFFFFFFFFFFFFFFFFFFFF AND PUSH20 0xFFFFFFFFFFFFFFFFFFFFFFFFFFFFFFFFFFFFFFFF AND DUP2 MSTORE PUSH1 0x20 ADD SWAP1 DUP2 MSTORE PUSH1 0x20 ADD PUSH1 0x0 KECCAK256 PUSH1 0x0 ADD PUSH1 0x2 SWAP1 SLOAD SWAP1 PUSH2 0x100 EXP SWAP1 DIV PUSH1 0xFF AND PUSH1 0xFF AND DUP3 PUSH1 0xFF AND EQ JUMPDEST DUP1 ISZERO PUSH2 0x635 JUMPI POP PUSH1 0x2 PUSH1 0x0 DUP7 PUSH20 0xFFFFFFFFFFFFFFFFFFFFFFFFFFFFFFFFFFFFFFFF AND PUSH20 0xFFFFFFFFFFFFFFFFFFFFFFFFFFFFFFFFFFFFFFFF AND DUP2 MSTORE PUSH1 0x20 ADD SWAP1 DUP2 MSTORE PUSH1 0x20 ADD PUSH1 0x0 KECCAK256 PUSH1 0x0 ADD PUSH1 0x3 SWAP1 SLOAD SWAP1 PUSH2 0x100 EXP SWAP1 DIV PUSH1 0xFF AND PUSH1 0xFF AND DUP2 PUSH1 0xFF AND EQ JUMPDEST ISZERO PUSH2 0x646 JUMPI PUSH1 0x0 SWAP4 POP POP POP POP PUSH2 0x81E JUMP JUMPDEST PUSH1 0x0 PUSH2 0x651 TIMESTAMP PUSH2 0xAA7 JUMP JUMPDEST SWAP1 POP PUSH1 0x0 PUSH2 0x65E TIMESTAMP PUSH2 0xAD4 JUMP JUMPDEST SWAP1 POP PUSH1 0x0 DUP1 PUSH1 0x6 PUSH2 0x66E TIMESTAMP PUSH2 0xAF5 JUMP JUMPDEST PUSH1 0xFF AND LT ISZERO PUSH2 0x720 JUMPI PUSH1 0x1 PUSH1 0x0 DUP11 PUSH20 0xFFFFFFFFFFFFFFFFFFFFFFFFFFFFFFFFFFFFFFFF AND PUSH20 0xFFFFFFFFFFFFFFFFFFFFFFFFFFFFFFFFFFFFFFFF AND DUP2 MSTORE PUSH1 0x20 ADD SWAP1 DUP2 MSTORE PUSH1 0x20 ADD PUSH1 0x0 KECCAK256 PUSH1 0x0 ADD PUSH1 0x0 SWAP1 SLOAD SWAP1 PUSH2 0x100 EXP SWAP1 DIV PUSH1 0xFF AND SWAP2 POP PUSH1 0x1 PUSH1 0x0 DUP11 PUSH20 0xFFFFFFFFFFFFFFFFFFFFFFFFFFFFFFFFFFFFFFFF AND PUSH20 0xFFFFFFFFFFFFFFFFFFFFFFFFFFFFFFFFFFFFFFFF AND DUP2 MSTORE PUSH1 0x20 ADD SWAP1 DUP2 MSTORE PUSH1 0x20 ADD PUSH1 0x0 KECCAK256 PUSH1 0x0 ADD PUSH1 0x1 SWAP1 SLOAD SWAP1 PUSH2 0x100 EXP SWAP1 DIV PUSH1 0xFF AND SWAP1 POP PUSH2 0x7C5 JUMP JUMPDEST PUSH1 0x1 PUSH1 0x0 DUP11 PUSH20 0xFFFFFFFFFFFFFFFFFFFFFFFFFFFFFFFFFFFFFFFF AND PUSH20 0xFFFFFFFFFFFFFFFFFFFFFFFFFFFFFFFFFFFFFFFF AND DUP2 MSTORE PUSH1 0x20 ADD SWAP1 DUP2 MSTORE PUSH1 0x20 ADD PUSH1 0x0 KECCAK256 PUSH1 0x0 ADD PUSH1 0x2 SWAP1 SLOAD SWAP1 PUSH2 0x100 EXP SWAP1 DIV PUSH1 0xFF AND SWAP2 POP PUSH1 0x1 PUSH1 0x0 DUP11 PUSH20 0xFFFFFFFFFFFFFFFFFFFFFFFFFFFFFFFFFFFFFFFF AND PUSH20 0xFFFFFFFFFFFFFFFFFFFFFFFFFFFFFFFFFFFFFFFF AND DUP2 MSTORE PUSH1 0x20 ADD SWAP1 DUP2 MSTORE PUSH1 0x20 ADD PUSH1 0x0 KECCAK256 PUSH1 0x0 ADD PUSH1 0x3 SWAP1 SLOAD SWAP1 PUSH2 0x100 EXP SWAP1 DIV PUSH1 0xFF AND SWAP1 POP JUMPDEST DUP2 PUSH1 0xFF AND DUP5 PUSH1 0xFF AND LT ISZERO PUSH2 0x7E3 JUMPI PUSH1 0x1 SWAP8 POP POP POP POP POP POP POP POP PUSH2 0x81E JUMP JUMPDEST DUP2 PUSH1 0xFF AND DUP5 PUSH1 0xFF AND EQ DUP1 ISZERO PUSH2 0x7FD JUMPI POP DUP1 PUSH1 0xFF AND DUP4 PUSH1 0xFF AND LT JUMPDEST ISZERO PUSH2 0x812 JUMPI PUSH1 0x1 SWAP8 POP POP POP POP POP POP POP POP PUSH2 0x81E JUMP JUMPDEST PUSH1 0x0 SWAP8 POP POP POP POP POP POP POP POP JUMPDEST SWAP2 SWAP1 POP JUMP JUMPDEST PUSH1 0x0 DUP1 PUSH1 0x0 DUP4 PUSH20 0xFFFFFFFFFFFFFFFFFFFFFFFFFFFFFFFFFFFFFFFF AND PUSH20 0xFFFFFFFFFFFFFFFFFFFFFFFFFFFFFFFFFFFFFFFF AND DUP2 MSTORE PUSH1 0x20 ADD SWAP1 DUP2 MSTORE PUSH1 0x20 ADD PUSH1 0x0 KECCAK256 SLOAD SWAP1 POP SWAP2 SWAP1 POP JUMP JUMPDEST PUSH1 0x40 MLOAD DUP1 PUSH1 0x80 ADD PUSH1 0x40 MSTORE DUP1 DUP6 PUSH1 0xFF AND DUP2 MSTORE PUSH1 0x20 ADD DUP5 PUSH1 0xFF AND DUP2 MSTORE PUSH1 0x20 ADD DUP4 PUSH1 0xFF AND DUP2 MSTORE PUSH1 0x20 ADD DUP3 PUSH1 0xFF AND DUP2 MSTORE POP PUSH1 0x1 PUSH1 0x0 CALLER PUSH20 0xFFFFFFFFFFFFFFFFFFFFFFFFFFFFFFFFFFFFFFFF AND PUSH20 0xFFFFFFFFFFFFFFFFFFFFFFFFFFFFFFFFFFFFFFFF AND DUP2 MSTORE PUSH1 0x20 ADD SWAP1 DUP2 MSTORE PUSH1 0x20 ADD PUSH1 0x0 KECCAK256 PUSH1 0x0 DUP3 ADD MLOAD DUP2 PUSH1 0x0 ADD PUSH1 0x0 PUSH2 0x100 EXP DUP2 SLOAD DUP2 PUSH1 0xFF MUL NOT AND SWAP1 DUP4 PUSH1 0xFF AND MUL OR SWAP1 SSTORE POP PUSH1 0x20 DUP3 ADD MLOAD DUP2 PUSH1 0x0 ADD PUSH1 0x1 PUSH2 0x100 EXP DUP2 SLOAD DUP2 PUSH1 0xFF MUL NOT AND SWAP1 DUP4 PUSH1 0xFF AND MUL OR SWAP1 SSTORE POP PUSH1 0x40 DUP3 ADD MLOAD DUP2 PUSH1 0x0 ADD PUSH1 0x2 PUSH2 0x100 EXP DUP2 SLOAD DUP2 PUSH1 0xFF MUL NOT AND SWAP1 DUP4 PUSH1 0xFF AND MUL OR SWAP1 SSTORE POP PUSH1 0x60 DUP3 ADD MLOAD DUP2 PUSH1 0x0 ADD PUSH1 0x3 PUSH2 0x100 EXP DUP2 SLOAD DUP2 PUSH1 0xFF MUL NOT AND SWAP1 DUP4 PUSH1 0xFF AND MUL OR SWAP1 SSTORE POP SWAP1 POP POP POP POP POP POP JUMP JUMPDEST PUSH1 0x0 DUP1 PUSH1 0x0 SWAP1 POP PUSH1 0x0 DUP1 PUSH4 0x1E13380 DUP6 PUSH2 0x97E SWAP2 SWAP1 PUSH2 0x132E JUMP JUMPDEST PUSH2 0x7B2 PUSH2 0xFFFF AND PUSH2 0x98F SWAP2 SWAP1 PUSH2 0x135F JUMP JUMPDEST SWAP2 POP PUSH2 0x9A0 PUSH2 0x7B2 PUSH2 0xFFFF AND PUSH2 0xB25 JUMP JUMPDEST PUSH2 0x9AD DUP4 PUSH2 0xFFFF AND PUSH2 0xB25 JUMP JUMPDEST PUSH2 0x9B7 SWAP2 SWAP1 PUSH2 0x1393 JUMP JUMPDEST SWAP1 POP DUP1 PUSH4 0x1E28500 PUSH2 0x9C9 SWAP2 SWAP1 PUSH2 0x13C7 JUMP JUMPDEST DUP4 PUSH2 0x9D4 SWAP2 SWAP1 PUSH2 0x135F JUMP JUMPDEST SWAP3 POP DUP1 PUSH2 0x7B2 DUP4 PUSH2 0x9E5 SWAP2 SWAP1 PUSH2 0x1417 JUMP JUMPDEST PUSH2 0xFFFF AND PUSH2 0x9F3 SWAP2 SWAP1 PUSH2 0x1393 JUMP JUMPDEST PUSH4 0x1E13380 PUSH2 0xA02 SWAP2 SWAP1 PUSH2 0x13C7 JUMP JUMPDEST DUP4 PUSH2 0xA0D SWAP2 SWAP1 PUSH2 0x135F JUMP JUMPDEST SWAP3 POP JUMPDEST DUP5 DUP4 GT ISZERO PUSH2 0xA70 JUMPI PUSH2 0xA2D PUSH1 0x1 DUP4 PUSH2 0xA28 SWAP2 SWAP1 PUSH2 0x1417 JUMP JUMPDEST PUSH2 0xB79 JUMP JUMPDEST ISZERO PUSH2 0xA49 JUMPI PUSH4 0x1E28500 DUP4 PUSH2 0xA42 SWAP2 SWAP1 PUSH2 0x1393 JUMP JUMPDEST SWAP3 POP PUSH2 0xA5C JUMP JUMPDEST PUSH4 0x1E13380 DUP4 PUSH2 0xA59 SWAP2 SWAP1 PUSH2 0x1393 JUMP JUMPDEST SWAP3 POP JUMPDEST PUSH1 0x1 DUP3 PUSH2 0xA69 SWAP2 SWAP1 PUSH2 0x1417 JUMP JUMPDEST SWAP2 POP PUSH2 0xA10 JUMP JUMPDEST DUP2 SWAP4 POP POP POP POP SWAP2 SWAP1 POP JUMP JUMPDEST PUSH1 0x0 PUSH2 0xA86 DUP3 PUSH2 0xBE8 JUMP JUMPDEST PUSH1 0x20 ADD MLOAD SWAP1 POP SWAP2 SWAP1 POP JUMP JUMPDEST PUSH1 0x0 PUSH2 0xA9C DUP3 PUSH2 0xBE8 JUMP JUMPDEST PUSH1 0x40 ADD MLOAD SWAP1 POP SWAP2 SWAP1 POP JUMP JUMPDEST PUSH1 0x0 PUSH1 0x18 PUSH1 0x3C DUP1 DUP5 PUSH2 0xAB9 SWAP2 SWAP1 PUSH2 0x132E JUMP JUMPDEST PUSH2 0xAC3 SWAP2 SWAP1 PUSH2 0x132E JUMP JUMPDEST PUSH2 0xACD SWAP2 SWAP1 PUSH2 0x144D JUMP JUMPDEST SWAP1 POP SWAP2 SWAP1 POP JUMP JUMPDEST PUSH1 0x0 PUSH1 0x3C DUP1 DUP4 PUSH2 0xAE4 SWAP2 SWAP1 PUSH2 0x132E JUMP JUMPDEST PUSH2 0xAEE SWAP2 SWAP1 PUSH2 0x144D JUMP JUMPDEST SWAP1 POP SWAP2 SWAP1 POP JUMP JUMPDEST PUSH1 0x0 PUSH1 0x7 PUSH1 0x4 PUSH3 0x15180 DUP5 PUSH2 0xB0A SWAP2 SWAP1 PUSH2 0x132E JUMP JUMPDEST PUSH2 0xB14 SWAP2 SWAP1 PUSH2 0x135F JUMP JUMPDEST PUSH2 0xB1E SWAP2 SWAP1 PUSH2 0x144D JUMP JUMPDEST SWAP1 POP SWAP2 SWAP1 POP JUMP JUMPDEST PUSH1 0x0 PUSH1 0x1 DUP3 PUSH2 0xB34 SWAP2 SWAP1 PUSH2 0x1393 JUMP JUMPDEST SWAP2 POP PUSH2 0x190 DUP3 PUSH2 0xB44 SWAP2 SWAP1 PUSH2 0x132E JUMP JUMPDEST PUSH1 0x64 DUP4 PUSH2 0xB51 SWAP2 SWAP1 PUSH2 0x132E JUMP JUMPDEST PUSH1 0x4 DUP5 PUSH2 0xB5E SWAP2 SWAP1 PUSH2 0x132E JUMP JUMPDEST PUSH2 0xB68 SWAP2 SWAP1 PUSH2 0x1393 JUMP JUMPDEST PUSH2 0xB72 SWAP2 SWAP1 PUSH2 0x135F JUMP JUMPDEST SWAP1 POP SWAP2 SWAP1 POP JUMP JUMPDEST PUSH1 0x0 DUP1 PUSH1 0x4 DUP4 PUSH2 0xB89 SWAP2 SWAP1 PUSH2 0x147E JUMP JUMPDEST PUSH2 0xFFFF AND EQ PUSH2 0xB9B JUMPI PUSH1 0x0 SWAP1 POP PUSH2 0xBE3 JUMP JUMPDEST PUSH1 0x0 PUSH1 0x64 DUP4 PUSH2 0xBAA SWAP2 SWAP1 PUSH2 0x147E JUMP JUMPDEST PUSH2 0xFFFF AND EQ PUSH2 0xBBC JUMPI PUSH1 0x1 SWAP1 POP PUSH2 0xBE3 JUMP JUMPDEST PUSH1 0x0 PUSH2 0x190 DUP4 PUSH2 0xBCC SWAP2 SWAP1 PUSH2 0x147E JUMP JUMPDEST PUSH2 0xFFFF AND EQ PUSH2 0xBDE JUMPI PUSH1 0x0 SWAP1 POP PUSH2 0xBE3 JUMP JUMPDEST PUSH1 0x1 SWAP1 POP JUMPDEST SWAP2 SWAP1 POP JUMP JUMPDEST PUSH2 0xBF0 PUSH2 0xF0F JUMP JUMPDEST PUSH1 0x0 DUP1 DUP1 PUSH2 0xBFD DUP6 PUSH2 0x964 JUMP JUMPDEST DUP5 PUSH1 0x0 ADD SWAP1 PUSH2 0xFFFF AND SWAP1 DUP2 PUSH2 0xFFFF AND DUP2 MSTORE POP POP PUSH2 0xC1F PUSH2 0x7B2 PUSH2 0xFFFF AND PUSH2 0xB25 JUMP JUMPDEST PUSH2 0xC30 DUP6 PUSH1 0x0 ADD MLOAD PUSH2 0xFFFF AND PUSH2 0xB25 JUMP JUMPDEST PUSH2 0xC3A SWAP2 SWAP1 PUSH2 0x1393 JUMP JUMPDEST SWAP2 POP DUP2 PUSH4 0x1E28500 PUSH2 0xC4C SWAP2 SWAP1 PUSH2 0x13C7 JUMP JUMPDEST DUP4 PUSH2 0xC57 SWAP2 SWAP1 PUSH2 0x135F JUMP JUMPDEST SWAP3 POP DUP2 PUSH2 0x7B2 DUP6 PUSH1 0x0 ADD MLOAD PUSH2 0xC6C SWAP2 SWAP1 PUSH2 0x1417 JUMP JUMPDEST PUSH2 0xFFFF AND PUSH2 0xC7A SWAP2 SWAP1 PUSH2 0x1393 JUMP JUMPDEST PUSH4 0x1E13380 PUSH2 0xC89 SWAP2 SWAP1 PUSH2 0x13C7 JUMP JUMPDEST DUP4 PUSH2 0xC94 SWAP2 SWAP1 PUSH2 0x135F JUMP JUMPDEST SWAP3 POP PUSH1 0x0 PUSH1 0x1 SWAP2 POP JUMPDEST PUSH1 0xC DUP3 PUSH1 0xFF AND GT PUSH2 0xD14 JUMPI PUSH2 0xCB6 DUP3 DUP7 PUSH1 0x0 ADD MLOAD PUSH2 0xDF9 JUMP JUMPDEST PUSH1 0xFF AND PUSH3 0x15180 PUSH2 0xCC7 SWAP2 SWAP1 PUSH2 0x13C7 JUMP JUMPDEST SWAP1 POP DUP6 DUP5 DUP3 PUSH2 0xCD6 SWAP2 SWAP1 PUSH2 0x135F JUMP JUMPDEST GT ISZERO PUSH2 0xCF3 JUMPI DUP2 DUP6 PUSH1 0x20 ADD SWAP1 PUSH1 0xFF AND SWAP1 DUP2 PUSH1 0xFF AND DUP2 MSTORE POP POP PUSH2 0xD14 JUMP JUMPDEST DUP1 DUP5 PUSH2 0xCFF SWAP2 SWAP1 PUSH2 0x135F JUMP JUMPDEST SWAP4 POP DUP2 DUP1 PUSH2 0xD0C SWAP1 PUSH2 0x14AF JUMP JUMPDEST SWAP3 POP POP PUSH2 0xC9D JUMP JUMPDEST PUSH1 0x1 SWAP2 POP JUMPDEST PUSH2 0xD2B DUP6 PUSH1 0x20 ADD MLOAD DUP7 PUSH1 0x0 ADD MLOAD PUSH2 0xDF9 JUMP JUMPDEST PUSH1 0xFF AND DUP3 PUSH1 0xFF AND GT PUSH2 0xD88 JUMPI DUP6 DUP5 PUSH3 0x15180 PUSH2 0xD47 SWAP2 SWAP1 PUSH2 0x135F JUMP JUMPDEST GT ISZERO PUSH2 0xD64 JUMPI DUP2 DUP6 PUSH1 0x40 ADD SWAP1 PUSH1 0xFF AND SWAP1 DUP2 PUSH1 0xFF AND DUP2 MSTORE POP POP PUSH2 0xD88 JUMP JUMPDEST PUSH3 0x15180 DUP5 PUSH2 0xD73 SWAP2 SWAP1 PUSH2 0x135F JUMP JUMPDEST SWAP4 POP DUP2 DUP1 PUSH2 0xD80 SWAP1 PUSH2 0x14AF JUMP JUMPDEST SWAP3 POP POP PUSH2 0xD19 JUMP JUMPDEST PUSH2 0xD91 DUP7 PUSH2 0xAA7 JUMP JUMPDEST DUP6 PUSH1 0x60 ADD SWAP1 PUSH1 0xFF AND SWAP1 DUP2 PUSH1 0xFF AND DUP2 MSTORE POP POP PUSH2 0xDAB DUP7 PUSH2 0xAD4 JUMP JUMPDEST DUP6 PUSH1 0x80 ADD SWAP1 PUSH1 0xFF AND SWAP1 DUP2 PUSH1 0xFF AND DUP2 MSTORE POP POP PUSH2 0xDC5 DUP7 PUSH2 0xEC5 JUMP JUMPDEST DUP6 PUSH1 0xA0 ADD SWAP1 PUSH1 0xFF AND SWAP1 DUP2 PUSH1 0xFF AND DUP2 MSTORE POP POP PUSH2 0xDDF DUP7 PUSH2 0xAF5 JUMP JUMPDEST DUP6 PUSH1 0xC0 ADD SWAP1 PUSH1 0xFF AND SWAP1 DUP2 PUSH1 0xFF AND DUP2 MSTORE POP POP POP POP POP POP SWAP2 SWAP1 POP JUMP JUMPDEST PUSH1 0x0 PUSH1 0x1 DUP4 PUSH1 0xFF AND EQ DUP1 PUSH2 0xE10 JUMPI POP PUSH1 0x3 DUP4 PUSH1 0xFF AND EQ JUMPDEST DUP1 PUSH2 0xE1E JUMPI POP PUSH1 0x5 DUP4 PUSH1 0xFF AND EQ JUMPDEST DUP1 PUSH2 0xE2C JUMPI POP PUSH1 0x7 DUP4 PUSH1 0xFF AND EQ JUMPDEST DUP1 PUSH2 0xE3A JUMPI POP PUSH1 0x8 DUP4 PUSH1 0xFF AND EQ JUMPDEST DUP1 PUSH2 0xE48 JUMPI POP PUSH1 0xA DUP4 PUSH1 0xFF AND EQ JUMPDEST DUP1 PUSH2 0xE56 JUMPI POP PUSH1 0xC DUP4 PUSH1 0xFF AND EQ JUMPDEST ISZERO PUSH2 0xE64 JUMPI PUSH1 0x1F SWAP1 POP PUSH2 0xEBF JUMP JUMPDEST PUSH1 0x4 DUP4 PUSH1 0xFF AND EQ DUP1 PUSH2 0xE79 JUMPI POP PUSH1 0x6 DUP4 PUSH1 0xFF AND EQ JUMPDEST DUP1 PUSH2 0xE87 JUMPI POP PUSH1 0x9 DUP4 PUSH1 0xFF AND EQ JUMPDEST DUP1 PUSH2 0xE95 JUMPI POP PUSH1 0xB DUP4 PUSH1 0xFF AND EQ JUMPDEST ISZERO PUSH2 0xEA3 JUMPI PUSH1 0x1E SWAP1 POP PUSH2 0xEBF JUMP JUMPDEST PUSH2 0xEAC DUP3 PUSH2 0xB79 JUMP JUMPDEST ISZERO PUSH2 0xEBA JUMPI PUSH1 0x1D SWAP1 POP PUSH2 0xEBF JUMP JUMPDEST PUSH1 0x1C SWAP1 POP JUMPDEST SWAP3 SWAP2 POP POP JUMP JUMPDEST PUSH1 0x0 PUSH1 0x3C DUP3 PUSH2 0xED4 SWAP2 SWAP1 PUSH2 0x144D JUMP JUMPDEST SWAP1 POP SWAP2 SWAP1 POP JUMP JUMPDEST PUSH1 0x40 MLOAD DUP1 PUSH1 0x80 ADD PUSH1 0x40 MSTORE DUP1 PUSH1 0x0 PUSH1 0xFF AND DUP2 MSTORE PUSH1 0x20 ADD PUSH1 0x0 PUSH1 0xFF AND DUP2 MSTORE PUSH1 0x20 ADD PUSH1 0x0 PUSH1 0xFF AND DUP2 MSTORE PUSH1 0x20 ADD PUSH1 0x0 PUSH1 0xFF AND DUP2 MSTORE POP SWAP1 JUMP JUMPDEST PUSH1 0x40 MLOAD DUP1 PUSH1 0xE0 ADD PUSH1 0x40 MSTORE DUP1 PUSH1 0x0 PUSH2 0xFFFF AND DUP2 MSTORE PUSH1 0x20 ADD PUSH1 0x0 PUSH1 0xFF AND DUP2 MSTORE PUSH1 0x20 ADD PUSH1 0x0 PUSH1 0xFF AND DUP2 MSTORE PUSH1 0x20 ADD PUSH1 0x0 PUSH1 0xFF AND DUP2 MSTORE PUSH1 0x20 ADD PUSH1 0x0 PUSH1 0xFF AND DUP2 MSTORE PUSH1 0x20 ADD PUSH1 0x0 PUSH1 0xFF AND DUP2 MSTORE PUSH1 0x20 ADD PUSH1 0x0 PUSH1 0xFF AND DUP2 MSTORE POP SWAP1 JUMP JUMPDEST PUSH1 0x0 DUP3 DUP3 MSTORE PUSH1 0x20 DUP3 ADD SWAP1 POP SWAP3 SWAP2 POP POP JUMP JUMPDEST PUSH32 0x57726F6E6720416D6F756E740000000000000000000000000000000000000000 PUSH1 0x0 DUP3 ADD MSTORE POP JUMP JUMPDEST PUSH1 0x0 PUSH2 0xFA9 PUSH1 0xC DUP4 PUSH2 0xF62 JUMP JUMPDEST SWAP2 POP PUSH2 0xFB4 DUP3 PUSH2 0xF73 JUMP JUMPDEST PUSH1 0x20 DUP3 ADD SWAP1 POP SWAP2 SWAP1 POP JUMP JUMPDEST PUSH1 0x0 PUSH1 0x20 DUP3 ADD SWAP1 POP DUP2 DUP2 SUB PUSH1 0x0 DUP4 ADD MSTORE PUSH2 0xFD8 DUP2 PUSH2 0xF9C JUMP JUMPDEST SWAP1 POP SWAP2 SWAP1 POP JUMP JUMPDEST PUSH1 0x0 DUP2 SWAP1 POP SWAP2 SWAP1 POP JUMP JUMPDEST PUSH2 0xFF2 DUP2 PUSH2 0xFDF JUMP JUMPDEST DUP3 MSTORE POP POP JUMP JUMPDEST PUSH1 0x0 PUSH1 0x20 DUP3 ADD SWAP1 POP PUSH2 0x100D PUSH1 0x0 DUP4 ADD DUP5 PUSH2 0xFE9 JUMP JUMPDEST SWAP3 SWAP2 POP POP JUMP JUMPDEST PUSH1 0x0 DUP1 REVERT JUMPDEST PUSH1 0x0 PUSH20 0xFFFFFFFFFFFFFFFFFFFFFFFFFFFFFFFFFFFFFFFF DUP3 AND SWAP1 POP SWAP2 SWAP1 POP JUMP JUMPDEST PUSH1 0x0 PUSH2 0x1043 DUP3 PUSH2 0x1018 JUMP JUMPDEST SWAP1 POP SWAP2 SWAP1 POP JUMP JUMPDEST PUSH2 0x1053 DUP2 PUSH2 0x1038 JUMP JUMPDEST DUP2 EQ PUSH2 0x105E JUMPI PUSH1 0x0 DUP1 REVERT JUMPDEST POP JUMP JUMPDEST PUSH1 0x0 DUP2 CALLDATALOAD SWAP1 POP PUSH2 0x1070 DUP2 PUSH2 0x104A JUMP JUMPDEST SWAP3 SWAP2 POP POP JUMP JUMPDEST PUSH1 0x0 PUSH1 0x20 DUP3 DUP5 SUB SLT ISZERO PUSH2 0x108C JUMPI PUSH2 0x108B PUSH2 0x1013 JUMP JUMPDEST JUMPDEST PUSH1 0x0 PUSH2 0x109A DUP5 DUP3 DUP6 ADD PUSH2 0x1061 JUMP JUMPDEST SWAP2 POP POP SWAP3 SWAP2 POP POP JUMP JUMPDEST PUSH1 0x0 PUSH1 0xFF DUP3 AND SWAP1 POP SWAP2 SWAP1 POP JUMP JUMPDEST PUSH2 0x10B9 DUP2 PUSH2 0x10A3 JUMP JUMPDEST DUP3 MSTORE POP POP JUMP JUMPDEST PUSH1 0x80 DUP3 ADD PUSH1 0x0 DUP3 ADD MLOAD PUSH2 0x10D5 PUSH1 0x0 DUP6 ADD DUP3 PUSH2 0x10B0 JUMP JUMPDEST POP PUSH1 0x20 DUP3 ADD MLOAD PUSH2 0x10E8 PUSH1 0x20 DUP6 ADD DUP3 PUSH2 0x10B0 JUMP JUMPDEST POP PUSH1 0x40 DUP3 ADD MLOAD PUSH2 0x10FB PUSH1 0x40 DUP6 ADD DUP3 PUSH2 0x10B0 JUMP JUMPDEST POP PUSH1 0x60 DUP3 ADD MLOAD PUSH2 0x110E PUSH1 0x60 DUP6 ADD DUP3 PUSH2 0x10B0 JUMP JUMPDEST POP POP POP POP JUMP JUMPDEST PUSH1 0x0 PUSH1 0x80 DUP3 ADD SWAP1 POP PUSH2 0x1129 PUSH1 0x0 DUP4 ADD DUP5 PUSH2 0x10BF JUMP JUMPDEST SWAP3 SWAP2 POP POP JUMP JUMPDEST PUSH1 0x0 DUP2 ISZERO ISZERO SWAP1 POP SWAP2 SWAP1 POP JUMP JUMPDEST PUSH2 0x1144 DUP2 PUSH2 0x112F JUMP JUMPDEST DUP3 MSTORE POP POP JUMP JUMPDEST PUSH1 0x0 PUSH1 0x20 DUP3 ADD SWAP1 POP PUSH2 0x115F PUSH1 0x0 DUP4 ADD DUP5 PUSH2 0x113B JUMP JUMPDEST SWAP3 SWAP2 POP POP JUMP JUMPDEST PUSH2 0x116E DUP2 PUSH2 0x10A3 JUMP JUMPDEST DUP2 EQ PUSH2 0x1179 JUMPI PUSH1 0x0 DUP1 REVERT JUMPDEST POP JUMP JUMPDEST PUSH1 0x0 DUP2 CALLDATALOAD SWAP1 POP PUSH2 0x118B DUP2 PUSH2 0x1165 JUMP JUMPDEST SWAP3 SWAP2 POP POP JUMP JUMPDEST PUSH1 0x0 DUP1 PUSH1 0x0 DUP1 PUSH1 0x80 DUP6 DUP8 SUB SLT ISZERO PUSH2 0x11AB JUMPI PUSH2 0x11AA PUSH2 0x1013 JUMP JUMPDEST JUMPDEST PUSH1 0x0 PUSH2 0x11B9 DUP8 DUP3 DUP9 ADD PUSH2 0x117C JUMP JUMPDEST SWAP5 POP POP PUSH1 0x20 PUSH2 0x11CA DUP8 DUP3 DUP9 ADD PUSH2 0x117C JUMP JUMPDEST SWAP4 POP POP PUSH1 0x40 PUSH2 0x11DB DUP8 DUP3 DUP9 ADD PUSH2 0x117C JUMP JUMPDEST SWAP3 POP POP PUSH1 0x60 PUSH2 0x11EC DUP8 DUP3 DUP9 ADD PUSH2 0x117C JUMP JUMPDEST SWAP2 POP POP SWAP3 SWAP6 SWAP2 SWAP5 POP SWAP3 POP JUMP JUMPDEST PUSH32 0x596F7520617265206E6F7420616C6C6F77656420746F20776974686472617700 PUSH1 0x0 DUP3 ADD MSTORE POP JUMP JUMPDEST PUSH1 0x0 PUSH2 0x122E PUSH1 0x1F DUP4 PUSH2 0xF62 JUMP JUMPDEST SWAP2 POP PUSH2 0x1239 DUP3 PUSH2 0x11F8 JUMP JUMPDEST PUSH1 0x20 DUP3 ADD SWAP1 POP SWAP2 SWAP1 POP JUMP JUMPDEST PUSH1 0x0 PUSH1 0x20 DUP3 ADD SWAP1 POP DUP2 DUP2 SUB PUSH1 0x0 DUP4 ADD MSTORE PUSH2 0x125D DUP2 PUSH2 0x1221 JUMP JUMPDEST SWAP1 POP SWAP2 SWAP1 POP JUMP JUMPDEST PUSH32 0x596F75722062616C616E6365206973206E6F7420656E6F756768000000000000 PUSH1 0x0 DUP3 ADD MSTORE POP JUMP JUMPDEST PUSH1 0x0 PUSH2 0x129A PUSH1 0x1A DUP4 PUSH2 0xF62 JUMP JUMPDEST SWAP2 POP PUSH2 0x12A5 DUP3 PUSH2 0x1264 JUMP JUMPDEST PUSH1 0x20 DUP3 ADD SWAP1 POP SWAP2 SWAP1 POP JUMP JUMPDEST PUSH1 0x0 PUSH1 0x20 DUP3 ADD SWAP1 POP DUP2 DUP2 SUB PUSH1 0x0 DUP4 ADD MSTORE PUSH2 0x12C9 DUP2 PUSH2 0x128D JUMP JUMPDEST SWAP1 POP SWAP2 SWAP1 POP JUMP JUMPDEST PUSH32 0x4E487B7100000000000000000000000000000000000000000000000000000000 PUSH1 0x0 MSTORE PUSH1 0x12 PUSH1 0x4 MSTORE PUSH1 0x24 PUSH1 0x0 REVERT JUMPDEST PUSH32 0x4E487B7100000000000000000000000000000000000000000000000000000000 PUSH1 0x0 MSTORE PUSH1 0x11 PUSH1 0x4 MSTORE PUSH1 0x24 PUSH1 0x0 REVERT JUMPDEST PUSH1 0x0 PUSH2 0x1339 DUP3 PUSH2 0xFDF JUMP JUMPDEST SWAP2 POP PUSH2 0x1344 DUP4 PUSH2 0xFDF JUMP JUMPDEST SWAP3 POP DUP3 PUSH2 0x1354 JUMPI PUSH2 0x1353 PUSH2 0x12D0 JUMP JUMPDEST JUMPDEST DUP3 DUP3 DIV SWAP1 POP SWAP3 SWAP2 POP POP JUMP JUMPDEST PUSH1 0x0 PUSH2 0x136A DUP3 PUSH2 0xFDF JUMP JUMPDEST SWAP2 POP PUSH2 0x1375 DUP4 PUSH2 0xFDF JUMP JUMPDEST SWAP3 POP DUP3 DUP3 ADD SWAP1 POP DUP1 DUP3 GT ISZERO PUSH2 0x138D JUMPI PUSH2 0x138C PUSH2 0x12FF JUMP JUMPDEST JUMPDEST SWAP3 SWAP2 POP POP JUMP JUMPDEST PUSH1 0x0 PUSH2 0x139E DUP3 PUSH2 0xFDF JUMP JUMPDEST SWAP2 POP PUSH2 0x13A9 DUP4 PUSH2 0xFDF JUMP JUMPDEST SWAP3 POP DUP3 DUP3 SUB SWAP1 POP DUP2 DUP2 GT ISZERO PUSH2 0x13C1 JUMPI PUSH2 0x13C0 PUSH2 0x12FF JUMP JUMPDEST JUMPDEST SWAP3 SWAP2 POP POP JUMP JUMPDEST PUSH1 0x0 PUSH2 0x13D2 DUP3 PUSH2 0xFDF JUMP JUMPDEST SWAP2 POP PUSH2 0x13DD DUP4 PUSH2 0xFDF JUMP JUMPDEST SWAP3 POP DUP3 DUP3 MUL PUSH2 0x13EB DUP2 PUSH2 0xFDF JUMP JUMPDEST SWAP2 POP DUP3 DUP3 DIV DUP5 EQ DUP4 ISZERO OR PUSH2 0x1402 JUMPI PUSH2 0x1401 PUSH2 0x12FF JUMP JUMPDEST JUMPDEST POP SWAP3 SWAP2 POP POP JUMP JUMPDEST PUSH1 0x0 PUSH2 0xFFFF DUP3 AND SWAP1 POP SWAP2 SWAP1 POP JUMP JUMPDEST PUSH1 0x0 PUSH2 0x1422 DUP3 PUSH2 0x1409 JUMP JUMPDEST SWAP2 POP PUSH2 0x142D DUP4 PUSH2 0x1409 JUMP JUMPDEST SWAP3 POP DUP3 DUP3 SUB SWAP1 POP PUSH2 0xFFFF DUP2 GT ISZERO PUSH2 0x1447 JUMPI PUSH2 0x1446 PUSH2 0x12FF JUMP JUMPDEST JUMPDEST SWAP3 SWAP2 POP POP JUMP JUMPDEST PUSH1 0x0 PUSH2 0x1458 DUP3 PUSH2 0xFDF JUMP JUMPDEST SWAP2 POP PUSH2 0x1463 DUP4 PUSH2 0xFDF JUMP JUMPDEST SWAP3 POP DUP3 PUSH2 0x1473 JUMPI PUSH2 0x1472 PUSH2 0x12D0 JUMP JUMPDEST JUMPDEST DUP3 DUP3 MOD SWAP1 POP SWAP3 SWAP2 POP POP JUMP JUMPDEST PUSH1 0x0 PUSH2 0x1489 DUP3 PUSH2 0x1409 JUMP JUMPDEST SWAP2 POP PUSH2 0x1494 DUP4 PUSH2 0x1409 JUMP JUMPDEST SWAP3 POP DUP3 PUSH2 0x14A4 JUMPI PUSH2 0x14A3 PUSH2 0x12D0 JUMP JUMPDEST JUMPDEST DUP3 DUP3 MOD SWAP1 POP SWAP3 SWAP2 POP POP JUMP JUMPDEST PUSH1 0x0 PUSH2 0x14BA DUP3 PUSH2 0x10A3 JUMP JUMPDEST SWAP2 POP PUSH1 0xFF DUP3 SUB PUSH2 0x14CD JUMPI PUSH2 0x14CC PUSH2 0x12FF JUMP JUMPDEST JUMPDEST PUSH1 0x1 DUP3 ADD SWAP1 POP SWAP2 SWAP1 POP JUMP INVALID LOG2 PUSH5 0x6970667358 0x22 SLT KECCAK256 SWAP9 SWAP10 0xFC SGT LOG4 0xE8 GASLIMIT PUSH2 0x435A NUMBER 0x4D 0xF8 0x49 0x25 DUP3 0xED PUSH16 0x7C04B939929982E98C1F24BAF03F6473 PUSH16 0x6C634300081300330000000000000000 "},"methodIdentifiers":{"balanceOfAccount(address)":"c237d392","checkWithdraw(address)":"ad1f3bdc","getContractBalance()":"6f9fb98a","getWakeupSchedule(address)":"7db43bcc","scheduleWakeup(uint8,uint8,uint8,uint8)":"c7a033be","withdraw()":"3ccfd60b"}}}}}