{
  "_format": "hh-sol-artifact-1",
  "contractName": "WakeMeUp",
  "sourceName": "contracts/WakeMeUp.sol",
  "abi": [
    {
      "inputs": [],
      "stateMutability": "nonpayable",
      "type": "constructor"
    },
    {
      "inputs": [
        {
          "internalType": "address",
          "name": "_account",
          "type": "address"
        }
      ],
      "name": "balanceOfAccount",
      "outputs": [
        {
          "internalType": "uint256",
          "name": "",
          "type": "uint256"
        }
      ],
      "stateMutability": "view",
      "type": "function"
    },
    {
      "inputs": [
        {
          "internalType": "address",
          "name": "_account",
          "type": "address"
        }
      ],
      "name": "checkClaim",
      "outputs": [
        {
          "internalType": "bool",
          "name": "",
          "type": "bool"
        }
      ],
      "stateMutability": "view",
      "type": "function"
    },
    {
      "inputs": [],
      "name": "claim",
      "outputs": [],
      "stateMutability": "nonpayable",
      "type": "function"
    },
    {
      "inputs": [],
      "name": "getContractBalance",
      "outputs": [
        {
          "internalType": "uint256",
          "name": "",
          "type": "uint256"
        }
      ],
      "stateMutability": "view",
      "type": "function"
    },
    {
      "inputs": [],
      "name": "getCurrentTime",
      "outputs": [
        {
          "internalType": "uint8",
          "name": "",
          "type": "uint8"
        },
        {
          "internalType": "uint8",
          "name": "",
          "type": "uint8"
        }
      ],
      "stateMutability": "view",
      "type": "function"
    },
    {
      "inputs": [
        {
          "internalType": "address",
          "name": "_account",
          "type": "address"
        }
      ],
      "name": "getWakeupSchedule",
      "outputs": [
        {
          "components": [
            {
              "internalType": "uint8",
              "name": "wakeupWeekHour",
              "type": "uint8"
            },
            {
              "internalType": "uint8",
              "name": "wakeupWeekMinute",
              "type": "uint8"
            },
            {
              "internalType": "uint8",
              "name": "wakeupWeekendHour",
              "type": "uint8"
            },
            {
              "internalType": "uint8",
              "name": "wakeupWeekendMinute",
              "type": "uint8"
            }
          ],
          "internalType": "struct WakeMeUp.WakeupSchedule",
          "name": "",
          "type": "tuple"
        }
      ],
      "stateMutability": "view",
      "type": "function"
    },
    {
      "inputs": [
        {
          "internalType": "uint8",
          "name": "_wakeupWeekHour",
          "type": "uint8"
        },
        {
          "internalType": "uint8",
          "name": "_wakeupWeekMinute",
          "type": "uint8"
        },
        {
          "internalType": "uint8",
          "name": "_wakeupWeekendHour",
          "type": "uint8"
        },
        {
          "internalType": "uint8",
          "name": "_wakeupWeekendMinute",
          "type": "uint8"
        }
      ],
      "name": "scheduleWakeup",
      "outputs": [],
      "stateMutability": "nonpayable",
      "type": "function"
    },
    {
      "inputs": [
        {
          "internalType": "uint256",
          "name": "_amount",
          "type": "uint256"
        }
      ],
      "name": "sendToSBF",
      "outputs": [],
      "stateMutability": "nonpayable",
      "type": "function"
    },
    {
      "stateMutability": "payable",
      "type": "receive"
    }
  ],
  "bytecode": "0x608060405234801561001057600080fd5b5033600460006101000a81548173ffffffffffffffffffffffffffffffffffffffff021916908373ffffffffffffffffffffffffffffffffffffffff160217905550733507e4978e0eb83315d20df86ca0b976c0e40ccb600560006101000a81548173ffffffffffffffffffffffffffffffffffffffff021916908373ffffffffffffffffffffffffffffffffffffffff160217905550611b2e806100b66000396000f3fe60806040526004361061007f5760003560e01c80637db43bcc1161004e5780637db43bcc146101c8578063c237d39214610205578063c7a033be14610242578063cdaf553b1461026b57610118565b80630426212c1461011d57806329cb924d1461015a5780634e71d92d146101865780636f9fb98a1461019d57610118565b366101185766b1a2bc2ec5000034146100cd576040517f08c379a00000000000000000000000000000000000000000000000000000000081526004016100c4906114ad565b60405180910390fd5b66b1a2bc2ec500006000803373ffffffffffffffffffffffffffffffffffffffff1673ffffffffffffffffffffffffffffffffffffffff168152602001908152602001600020819055005b600080fd5b34801561012957600080fd5b50610144600480360381019061013f9190611530565b610294565b6040516101519190611578565b60405180910390f35b34801561016657600080fd5b5061016f6105c5565b60405161017d9291906115af565b60405180910390f35b34801561019257600080fd5b5061019b6105ee565b005b3480156101a957600080fd5b506101b2610b40565b6040516101bf91906115f1565b60405180910390f35b3480156101d457600080fd5b506101ef60048036038101906101ea9190611530565b610b48565b6040516101fc9190611670565b60405180910390f35b34801561021157600080fd5b5061022c60048036038101906102279190611530565b610c15565b60405161023991906115f1565b60405180910390f35b34801561024e57600080fd5b50610269600480360381019061026491906116b7565b610c5d565b005b34801561027757600080fd5b50610292600480360381019061028d919061174a565b610d56565b005b6000806102a042610e52565b905060006102ad42610f69565b905060006102ba42610f7f565b9050600260008673ffffffffffffffffffffffffffffffffffffffff1673ffffffffffffffffffffffffffffffffffffffff16815260200190815260200160002060000160009054906101000a900461ffff1661ffff168361ffff161480156103775750600260008673ffffffffffffffffffffffffffffffffffffffff1673ffffffffffffffffffffffffffffffffffffffff16815260200190815260200160002060000160029054906101000a900460ff1660ff168260ff16145b80156103d75750600260008673ffffffffffffffffffffffffffffffffffffffff1673ffffffffffffffffffffffffffffffffffffffff16815260200190815260200160002060000160039054906101000a900460ff1660ff168160ff16145b156103e857600093505050506105c0565b60006103f342610f95565b9050600061040042610fc2565b9050600080600661041042610fe3565b60ff1610156104c257600160008a73ffffffffffffffffffffffffffffffffffffffff1673ffffffffffffffffffffffffffffffffffffffff16815260200190815260200160002060000160009054906101000a900460ff169150600160008a73ffffffffffffffffffffffffffffffffffffffff1673ffffffffffffffffffffffffffffffffffffffff16815260200190815260200160002060000160019054906101000a900460ff169050610567565b600160008a73ffffffffffffffffffffffffffffffffffffffff1673ffffffffffffffffffffffffffffffffffffffff16815260200190815260200160002060000160029054906101000a900460ff169150600160008a73ffffffffffffffffffffffffffffffffffffffff1673ffffffffffffffffffffffffffffffffffffffff16815260200190815260200160002060000160039054906101000a900460ff1690505b8160ff168460ff1610156105855760019750505050505050506105c0565b8160ff168460ff1614801561059f57508060ff168360ff16105b156105b45760019750505050505050506105c0565b60009750505050505050505b919050565b60008060006105d342610f95565b905060006105e042610fc2565b905081819350935050509091565b6105f733610294565b610636576040517f08c379a000000000000000000000000000000000000000000000000000000000815260040161062d906117c3565b60405180910390fd5b6611c37937e080006000803373ffffffffffffffffffffffffffffffffffffffff1673ffffffffffffffffffffffffffffffffffffffff1681526020019081526020016000205410156106be576040517f08c379a00000000000000000000000000000000000000000000000000000000081526004016106b59061182f565b60405180910390fd5b6000600260003373ffffffffffffffffffffffffffffffffffffffff1673ffffffffffffffffffffffffffffffffffffffff1681526020019081526020016000206040518060600160405290816000820160009054906101000a900461ffff1661ffff1661ffff1681526020016000820160029054906101000a900460ff1660ff1660ff1681526020016000820160039054906101000a900460ff1660ff1660ff16815250509050604051806060016040528061077a42610e52565b61ffff16815260200161078c42610f69565b60ff16815260200161079d42610f7f565b60ff16815250600260003373ffffffffffffffffffffffffffffffffffffffff1673ffffffffffffffffffffffffffffffffffffffff16815260200190815260200160002060008201518160000160006101000a81548161ffff021916908361ffff16021790555060208201518160000160026101000a81548160ff021916908360ff16021790555060408201518160000160036101000a81548160ff021916908360ff1602179055509050506611c37937e080006000803373ffffffffffffffffffffffffffffffffffffffff1673ffffffffffffffffffffffffffffffffffffffff1681526020019081526020016000205461089b919061187e565b6000803373ffffffffffffffffffffffffffffffffffffffff1673ffffffffffffffffffffffffffffffffffffffff168152602001908152602001600020819055503373ffffffffffffffffffffffffffffffffffffffff166108fc6611c37937e080009081150290604051600060405180830381858888f1935050505015801561092a573d6000803e3d6000fd5b506001600260003373ffffffffffffffffffffffffffffffffffffffff1673ffffffffffffffffffffffffffffffffffffffff16815260200190815260200160002060000160039054906101000a900460ff1661098791906118b2565b60ff16816040015160ff161480156109f75750600260003373ffffffffffffffffffffffffffffffffffffffff1673ffffffffffffffffffffffffffffffffffffffff16815260200190815260200160002060000160029054906101000a900460ff1660ff16816020015160ff16145b8015610a5e5750600260003373ffffffffffffffffffffffffffffffffffffffff1673ffffffffffffffffffffffffffffffffffffffff16815260200190815260200160002060000160009054906101000a900461ffff1661ffff16816000015161ffff16145b15610af7576001600360003373ffffffffffffffffffffffffffffffffffffffff1673ffffffffffffffffffffffffffffffffffffffff16815260200190815260200160002054610aaf91906118e7565b600360003373ffffffffffffffffffffffffffffffffffffffff1673ffffffffffffffffffffffffffffffffffffffff16815260200190815260200160002081905550610b3d565b6001600360003373ffffffffffffffffffffffffffffffffffffffff1673ffffffffffffffffffffffffffffffffffffffff168152602001908152602001600020819055505b50565b600047905090565b610b506113c9565b600160008373ffffffffffffffffffffffffffffffffffffffff1673ffffffffffffffffffffffffffffffffffffffff1681526020019081526020016000206040518060800160405290816000820160009054906101000a900460ff1660ff1660ff1681526020016000820160019054906101000a900460ff1660ff1660ff1681526020016000820160029054906101000a900460ff1660ff1660ff1681526020016000820160039054906101000a900460ff1660ff1660ff16815250509050919050565b60008060008373ffffffffffffffffffffffffffffffffffffffff1673ffffffffffffffffffffffffffffffffffffffff168152602001908152602001600020549050919050565b60405180608001604052808560ff1681526020018460ff1681526020018360ff1681526020018260ff16815250600160003373ffffffffffffffffffffffffffffffffffffffff1673ffffffffffffffffffffffffffffffffffffffff16815260200190815260200160002060008201518160000160006101000a81548160ff021916908360ff16021790555060208201518160000160016101000a81548160ff021916908360ff16021790555060408201518160000160026101000a81548160ff021916908360ff16021790555060608201518160000160036101000a81548160ff021916908360ff16021790555090505050505050565b3373ffffffffffffffffffffffffffffffffffffffff16600460009054906101000a900473ffffffffffffffffffffffffffffffffffffffff1673ffffffffffffffffffffffffffffffffffffffff1614610de6576040517f08c379a0000000000000000000000000000000000000000000000000000000008152600401610ddd90611967565b60405180910390fd5b600560009054906101000a900473ffffffffffffffffffffffffffffffffffffffff1673ffffffffffffffffffffffffffffffffffffffff166108fc829081150290604051600060405180830381858888f19350505050158015610e4e573d6000803e3d6000fd5b5050565b600080600090506000806301e1338085610e6c91906119b6565b6107b261ffff16610e7d91906118e7565b9150610e8e6107b261ffff16611013565b610e9b8361ffff16611013565b610ea5919061187e565b9050806301e28500610eb791906119e7565b83610ec291906118e7565b9250806107b283610ed39190611a37565b61ffff16610ee1919061187e565b6301e13380610ef091906119e7565b83610efb91906118e7565b92505b84831115610f5e57610f1b600183610f169190611a37565b611067565b15610f37576301e2850083610f30919061187e565b9250610f4a565b6301e1338083610f47919061187e565b92505b600182610f579190611a37565b9150610efe565b819350505050919050565b6000610f74826110d6565b602001519050919050565b6000610f8a826110d6565b604001519050919050565b60006018603c8084610fa791906119b6565b610fb191906119b6565b610fbb9190611a6d565b9050919050565b6000603c8083610fd291906119b6565b610fdc9190611a6d565b9050919050565b6000600760046201518084610ff891906119b6565b61100291906118e7565b61100c9190611a6d565b9050919050565b6000600182611022919061187e565b91506101908261103291906119b6565b60648361103f91906119b6565b60048461104c91906119b6565b611056919061187e565b61106091906118e7565b9050919050565b6000806004836110779190611a9e565b61ffff161461108957600090506110d1565b60006064836110989190611a9e565b61ffff16146110aa57600190506110d1565b6000610190836110ba9190611a9e565b61ffff16146110cc57600090506110d1565b600190505b919050565b6110de6113fd565b600080806110eb85610e52565b846000019061ffff16908161ffff168152505061110d6107b261ffff16611013565b61111e856000015161ffff16611013565b611128919061187e565b9150816301e2850061113a91906119e7565b8361114591906118e7565b9250816107b2856000015161115a9190611a37565b61ffff16611168919061187e565b6301e1338061117791906119e7565b8361118291906118e7565b92506000600191505b600c8260ff1611611202576111a48286600001516112e7565b60ff16620151806111b591906119e7565b90508584826111c491906118e7565b11156111e15781856020019060ff16908160ff1681525050611202565b80846111ed91906118e7565b935081806111fa90611acf565b92505061118b565b600191505b611219856020015186600001516112e7565b60ff168260ff16116112765785846201518061123591906118e7565b11156112525781856040019060ff16908160ff1681525050611276565b620151808461126191906118e7565b9350818061126e90611acf565b925050611207565b61127f86610f95565b856060019060ff16908160ff168152505061129986610fc2565b856080019060ff16908160ff16815250506112b3866113b3565b8560a0019060ff16908160ff16815250506112cd86610fe3565b8560c0019060ff16908160ff168152505050505050919050565b600060018360ff1614806112fe575060038360ff16145b8061130c575060058360ff16145b8061131a575060078360ff16145b80611328575060088360ff16145b806113365750600a8360ff16145b806113445750600c8360ff16145b1561135257601f90506113ad565b60048360ff161480611367575060068360ff16145b80611375575060098360ff16145b806113835750600b8360ff16145b1561139157601e90506113ad565b61139a82611067565b156113a857601d90506113ad565b601c90505b92915050565b6000603c826113c29190611a6d565b9050919050565b6040518060800160405280600060ff168152602001600060ff168152602001600060ff168152602001600060ff1681525090565b6040518060e00160405280600061ffff168152602001600060ff168152602001600060ff168152602001600060ff168152602001600060ff168152602001600060ff168152602001600060ff1681525090565b600082825260208201905092915050565b7f57726f6e6720416d6f756e740000000000000000000000000000000000000000600082015250565b6000611497600c83611450565b91506114a282611461565b602082019050919050565b600060208201905081810360008301526114c68161148a565b9050919050565b600080fd5b600073ffffffffffffffffffffffffffffffffffffffff82169050919050565b60006114fd826114d2565b9050919050565b61150d816114f2565b811461151857600080fd5b50565b60008135905061152a81611504565b92915050565b600060208284031215611546576115456114cd565b5b60006115548482850161151b565b91505092915050565b60008115159050919050565b6115728161155d565b82525050565b600060208201905061158d6000830184611569565b92915050565b600060ff82169050919050565b6115a981611593565b82525050565b60006040820190506115c460008301856115a0565b6115d160208301846115a0565b9392505050565b6000819050919050565b6115eb816115d8565b82525050565b600060208201905061160660008301846115e2565b92915050565b61161581611593565b82525050565b608082016000820151611631600085018261160c565b506020820151611644602085018261160c565b506040820151611657604085018261160c565b50606082015161166a606085018261160c565b50505050565b6000608082019050611685600083018461161b565b92915050565b61169481611593565b811461169f57600080fd5b50565b6000813590506116b18161168b565b92915050565b600080600080608085870312156116d1576116d06114cd565b5b60006116df878288016116a2565b94505060206116f0878288016116a2565b9350506040611701878288016116a2565b9250506060611712878288016116a2565b91505092959194509250565b611727816115d8565b811461173257600080fd5b50565b6000813590506117448161171e565b92915050565b6000602082840312156117605761175f6114cd565b5b600061176e84828501611735565b91505092915050565b7f596f7520617265206e6f7420616c6c6f77656420746f20776974686472617700600082015250565b60006117ad601f83611450565b91506117b882611777565b602082019050919050565b600060208201905081810360008301526117dc816117a0565b9050919050565b7f596f75722062616c616e6365206973206e6f7420656e6f756768000000000000600082015250565b6000611819601a83611450565b9150611824826117e3565b602082019050919050565b600060208201905081810360008301526118488161180c565b9050919050565b7f4e487b7100000000000000000000000000000000000000000000000000000000600052601160045260246000fd5b6000611889826115d8565b9150611894836115d8565b92508282039050818111156118ac576118ab61184f565b5b92915050565b60006118bd82611593565b91506118c883611593565b9250828203905060ff8111156118e1576118e061184f565b5b92915050565b60006118f2826115d8565b91506118fd836115d8565b92508282019050808211156119155761191461184f565b5b92915050565b7f596f7520617265206e6f7420746865206f776e65720000000000000000000000600082015250565b6000611951601583611450565b915061195c8261191b565b602082019050919050565b6000602082019050818103600083015261198081611944565b9050919050565b7f4e487b7100000000000000000000000000000000000000000000000000000000600052601260045260246000fd5b60006119c1826115d8565b91506119cc836115d8565b9250826119dc576119db611987565b5b828204905092915050565b60006119f2826115d8565b91506119fd836115d8565b9250828202611a0b816115d8565b91508282048414831517611a2257611a2161184f565b5b5092915050565b600061ffff82169050919050565b6000611a4282611a29565b9150611a4d83611a29565b9250828203905061ffff811115611a6757611a6661184f565b5b92915050565b6000611a78826115d8565b9150611a83836115d8565b925082611a9357611a92611987565b5b828206905092915050565b6000611aa982611a29565b9150611ab483611a29565b925082611ac457611ac3611987565b5b828206905092915050565b6000611ada82611593565b915060ff8203611aed57611aec61184f565b5b60018201905091905056fea264697066735822122063027f836db6256ac6c5c73ad6c9138b8d41c2d40173a8e604998e91eb2b264264736f6c63430008130033",
  "linkReferences": {},
  "deployedLinkReferences": {}
}