{
  "_format": "hh-sol-artifact-1",
  "contractName": "WakeMeUp",
  "sourceName": "contracts/WakeMeUp.sol",
  "abi": [
    {
      "inputs": [
        {
          "internalType": "address",
          "name": "_account",
          "type": "address"
        }
      ],
      "name": "balanceOfAccount",
      "outputs": [
        {
          "internalType": "uint256",
          "name": "",
          "type": "uint256"
        }
      ],
      "stateMutability": "view",
      "type": "function"
    },
    {
      "inputs": [
        {
          "internalType": "address",
          "name": "_account",
          "type": "address"
        }
      ],
      "name": "checkWithdraw",
      "outputs": [
        {
          "internalType": "bool",
          "name": "",
          "type": "bool"
        }
      ],
      "stateMutability": "view",
      "type": "function"
    },
    {
      "inputs": [],
      "name": "getContractBalance",
      "outputs": [
        {
          "internalType": "uint256",
          "name": "",
          "type": "uint256"
        }
      ],
      "stateMutability": "view",
      "type": "function"
    },
    {
      "inputs": [
        {
          "internalType": "address",
          "name": "_account",
          "type": "address"
        }
      ],
      "name": "getWakeupSchedule",
      "outputs": [
        {
          "components": [
            {
              "internalType": "uint8",
              "name": "wakeupWeekHour",
              "type": "uint8"
            },
            {
              "internalType": "uint8",
              "name": "wakeupWeekMinute",
              "type": "uint8"
            },
            {
              "internalType": "uint8",
              "name": "wakeupWeekendHour",
              "type": "uint8"
            },
            {
              "internalType": "uint8",
              "name": "wakeupWeekendMinute",
              "type": "uint8"
            }
          ],
          "internalType": "struct WakeMeUp.WakeupSchedule",
          "name": "",
          "type": "tuple"
        }
      ],
      "stateMutability": "view",
      "type": "function"
    },
    {
      "inputs": [
        {
          "internalType": "uint8",
          "name": "_wakeupWeekHour",
          "type": "uint8"
        },
        {
          "internalType": "uint8",
          "name": "_wakeupWeekMinute",
          "type": "uint8"
        },
        {
          "internalType": "uint8",
          "name": "_wakeupWeekendHour",
          "type": "uint8"
        },
        {
          "internalType": "uint8",
          "name": "_wakeupWeekendMinute",
          "type": "uint8"
        }
      ],
      "name": "scheduleWakeup",
      "outputs": [],
      "stateMutability": "nonpayable",
      "type": "function"
    },
    {
      "inputs": [],
      "name": "withdraw",
      "outputs": [],
      "stateMutability": "nonpayable",
      "type": "function"
    },
    {
      "stateMutability": "payable",
      "type": "receive"
    }
  ],
  "bytecode": "0x608060405234801561001057600080fd5b5061150e806100206000396000f3fe6080604052600436106100595760003560e01c80633ccfd60b146100f75780636f9fb98a1461010e5780637db43bcc14610139578063ad1f3bdc14610176578063c237d392146101b3578063c7a033be146101f0576100f2565b366100f25766b1a2bc2ec5000034146100a7576040517f08c379a000000000000000000000000000000000000000000000000000000000815260040161009e90610fbf565b60405180910390fd5b66b1a2bc2ec500006000803373ffffffffffffffffffffffffffffffffffffffff1673ffffffffffffffffffffffffffffffffffffffff168152602001908152602001600020819055005b600080fd5b34801561010357600080fd5b5061010c610219565b005b34801561011a57600080fd5b5061012361041d565b6040516101309190610ff8565b60405180910390f35b34801561014557600080fd5b50610160600480360381019061015b9190611076565b610425565b60405161016d9190611114565b60405180910390f35b34801561018257600080fd5b5061019d60048036038101906101989190611076565b6104f2565b6040516101aa919061114a565b60405180910390f35b3480156101bf57600080fd5b506101da60048036038101906101d59190611076565b610823565b6040516101e79190610ff8565b60405180910390f35b3480156101fc57600080fd5b5061021760048036038101906102129190611191565b61086b565b005b610222336104f2565b610261576040517f08c379a000000000000000000000000000000000000000000000000000000000815260040161025890611244565b60405180910390fd5b6611c37937e080006000803373ffffffffffffffffffffffffffffffffffffffff1673ffffffffffffffffffffffffffffffffffffffff1681526020019081526020016000205410156102e9576040517f08c379a00000000000000000000000000000000000000000000000000000000081526004016102e0906112b0565b60405180910390fd5b60405180606001604052806102fd42610964565b61ffff16815260200161030f42610a7b565b60ff16815260200161032042610a91565b60ff16815250600260003373ffffffffffffffffffffffffffffffffffffffff1673ffffffffffffffffffffffffffffffffffffffff16815260200190815260200160002060008201518160000160006101000a81548161ffff021916908361ffff16021790555060208201518160000160026101000a81548160ff021916908360ff16021790555060408201518160000160036101000a81548160ff021916908360ff1602179055509050503373ffffffffffffffffffffffffffffffffffffffff166108fc6611c37937e080009081150290604051600060405180830381858888f1935050505015801561041a573d6000803e3d6000fd5b50565b600047905090565b61042d610edb565b600160008373ffffffffffffffffffffffffffffffffffffffff1673ffffffffffffffffffffffffffffffffffffffff1681526020019081526020016000206040518060800160405290816000820160009054906101000a900460ff1660ff1660ff1681526020016000820160019054906101000a900460ff1660ff1660ff1681526020016000820160029054906101000a900460ff1660ff1660ff1681526020016000820160039054906101000a900460ff1660ff1660ff16815250509050919050565b6000806104fe42610964565b9050600061050b42610a7b565b9050600061051842610a91565b9050600260008673ffffffffffffffffffffffffffffffffffffffff1673ffffffffffffffffffffffffffffffffffffffff16815260200190815260200160002060000160009054906101000a900461ffff1661ffff168361ffff161480156105d55750600260008673ffffffffffffffffffffffffffffffffffffffff1673ffffffffffffffffffffffffffffffffffffffff16815260200190815260200160002060000160029054906101000a900460ff1660ff168260ff16145b80156106355750600260008673ffffffffffffffffffffffffffffffffffffffff1673ffffffffffffffffffffffffffffffffffffffff16815260200190815260200160002060000160039054906101000a900460ff1660ff168160ff16145b15610646576000935050505061081e565b600061065142610aa7565b9050600061065e42610ad4565b9050600080600661066e42610af5565b60ff16101561072057600160008a73ffffffffffffffffffffffffffffffffffffffff1673ffffffffffffffffffffffffffffffffffffffff16815260200190815260200160002060000160009054906101000a900460ff169150600160008a73ffffffffffffffffffffffffffffffffffffffff1673ffffffffffffffffffffffffffffffffffffffff16815260200190815260200160002060000160019054906101000a900460ff1690506107c5565b600160008a73ffffffffffffffffffffffffffffffffffffffff1673ffffffffffffffffffffffffffffffffffffffff16815260200190815260200160002060000160029054906101000a900460ff169150600160008a73ffffffffffffffffffffffffffffffffffffffff1673ffffffffffffffffffffffffffffffffffffffff16815260200190815260200160002060000160039054906101000a900460ff1690505b8160ff168460ff1610156107e357600197505050505050505061081e565b8160ff168460ff161480156107fd57508060ff168360ff16105b1561081257600197505050505050505061081e565b60009750505050505050505b919050565b60008060008373ffffffffffffffffffffffffffffffffffffffff1673ffffffffffffffffffffffffffffffffffffffff168152602001908152602001600020549050919050565b60405180608001604052808560ff1681526020018460ff1681526020018360ff1681526020018260ff16815250600160003373ffffffffffffffffffffffffffffffffffffffff1673ffffffffffffffffffffffffffffffffffffffff16815260200190815260200160002060008201518160000160006101000a81548160ff021916908360ff16021790555060208201518160000160016101000a81548160ff021916908360ff16021790555060408201518160000160026101000a81548160ff021916908360ff16021790555060608201518160000160036101000a81548160ff021916908360ff16021790555090505050505050565b600080600090506000806301e133808561097e919061132e565b6107b261ffff1661098f919061135f565b91506109a06107b261ffff16610b25565b6109ad8361ffff16610b25565b6109b79190611393565b9050806301e285006109c991906113c7565b836109d4919061135f565b9250806107b2836109e59190611417565b61ffff166109f39190611393565b6301e13380610a0291906113c7565b83610a0d919061135f565b92505b84831115610a7057610a2d600183610a289190611417565b610b79565b15610a49576301e2850083610a429190611393565b9250610a5c565b6301e1338083610a599190611393565b92505b600182610a699190611417565b9150610a10565b819350505050919050565b6000610a8682610be8565b602001519050919050565b6000610a9c82610be8565b604001519050919050565b60006018603c8084610ab9919061132e565b610ac3919061132e565b610acd919061144d565b9050919050565b6000603c8083610ae4919061132e565b610aee919061144d565b9050919050565b6000600760046201518084610b0a919061132e565b610b14919061135f565b610b1e919061144d565b9050919050565b6000600182610b349190611393565b915061019082610b44919061132e565b606483610b51919061132e565b600484610b5e919061132e565b610b689190611393565b610b72919061135f565b9050919050565b600080600483610b89919061147e565b61ffff1614610b9b5760009050610be3565b6000606483610baa919061147e565b61ffff1614610bbc5760019050610be3565b600061019083610bcc919061147e565b61ffff1614610bde5760009050610be3565b600190505b919050565b610bf0610f0f565b60008080610bfd85610964565b846000019061ffff16908161ffff1681525050610c1f6107b261ffff16610b25565b610c30856000015161ffff16610b25565b610c3a9190611393565b9150816301e28500610c4c91906113c7565b83610c57919061135f565b9250816107b28560000151610c6c9190611417565b61ffff16610c7a9190611393565b6301e13380610c8991906113c7565b83610c94919061135f565b92506000600191505b600c8260ff1611610d1457610cb6828660000151610df9565b60ff1662015180610cc791906113c7565b9050858482610cd6919061135f565b1115610cf35781856020019060ff16908160ff1681525050610d14565b8084610cff919061135f565b93508180610d0c906114af565b925050610c9d565b600191505b610d2b85602001518660000151610df9565b60ff168260ff1611610d8857858462015180610d47919061135f565b1115610d645781856040019060ff16908160ff1681525050610d88565b6201518084610d73919061135f565b93508180610d80906114af565b925050610d19565b610d9186610aa7565b856060019060ff16908160ff1681525050610dab86610ad4565b856080019060ff16908160ff1681525050610dc586610ec5565b8560a0019060ff16908160ff1681525050610ddf86610af5565b8560c0019060ff16908160ff168152505050505050919050565b600060018360ff161480610e10575060038360ff16145b80610e1e575060058360ff16145b80610e2c575060078360ff16145b80610e3a575060088360ff16145b80610e485750600a8360ff16145b80610e565750600c8360ff16145b15610e6457601f9050610ebf565b60048360ff161480610e79575060068360ff16145b80610e87575060098360ff16145b80610e955750600b8360ff16145b15610ea357601e9050610ebf565b610eac82610b79565b15610eba57601d9050610ebf565b601c90505b92915050565b6000603c82610ed4919061144d565b9050919050565b6040518060800160405280600060ff168152602001600060ff168152602001600060ff168152602001600060ff1681525090565b6040518060e00160405280600061ffff168152602001600060ff168152602001600060ff168152602001600060ff168152602001600060ff168152602001600060ff168152602001600060ff1681525090565b600082825260208201905092915050565b7f57726f6e6720416d6f756e740000000000000000000000000000000000000000600082015250565b6000610fa9600c83610f62565b9150610fb482610f73565b602082019050919050565b60006020820190508181036000830152610fd881610f9c565b9050919050565b6000819050919050565b610ff281610fdf565b82525050565b600060208201905061100d6000830184610fe9565b92915050565b600080fd5b600073ffffffffffffffffffffffffffffffffffffffff82169050919050565b600061104382611018565b9050919050565b61105381611038565b811461105e57600080fd5b50565b6000813590506110708161104a565b92915050565b60006020828403121561108c5761108b611013565b5b600061109a84828501611061565b91505092915050565b600060ff82169050919050565b6110b9816110a3565b82525050565b6080820160008201516110d560008501826110b0565b5060208201516110e860208501826110b0565b5060408201516110fb60408501826110b0565b50606082015161110e60608501826110b0565b50505050565b600060808201905061112960008301846110bf565b92915050565b60008115159050919050565b6111448161112f565b82525050565b600060208201905061115f600083018461113b565b92915050565b61116e816110a3565b811461117957600080fd5b50565b60008135905061118b81611165565b92915050565b600080600080608085870312156111ab576111aa611013565b5b60006111b98782880161117c565b94505060206111ca8782880161117c565b93505060406111db8782880161117c565b92505060606111ec8782880161117c565b91505092959194509250565b7f596f7520617265206e6f7420616c6c6f77656420746f20776974686472617700600082015250565b600061122e601f83610f62565b9150611239826111f8565b602082019050919050565b6000602082019050818103600083015261125d81611221565b9050919050565b7f596f75722062616c616e6365206973206e6f7420656e6f756768000000000000600082015250565b600061129a601a83610f62565b91506112a582611264565b602082019050919050565b600060208201905081810360008301526112c98161128d565b9050919050565b7f4e487b7100000000000000000000000000000000000000000000000000000000600052601260045260246000fd5b7f4e487b7100000000000000000000000000000000000000000000000000000000600052601160045260246000fd5b600061133982610fdf565b915061134483610fdf565b925082611354576113536112d0565b5b828204905092915050565b600061136a82610fdf565b915061137583610fdf565b925082820190508082111561138d5761138c6112ff565b5b92915050565b600061139e82610fdf565b91506113a983610fdf565b92508282039050818111156113c1576113c06112ff565b5b92915050565b60006113d282610fdf565b91506113dd83610fdf565b92508282026113eb81610fdf565b91508282048414831517611402576114016112ff565b5b5092915050565b600061ffff82169050919050565b600061142282611409565b915061142d83611409565b9250828203905061ffff811115611447576114466112ff565b5b92915050565b600061145882610fdf565b915061146383610fdf565b925082611473576114726112d0565b5b828206905092915050565b600061148982611409565b915061149483611409565b9250826114a4576114a36112d0565b5b828206905092915050565b60006114ba826110a3565b915060ff82036114cd576114cc6112ff565b5b60018201905091905056fea26469706673582212209899fc13a4e84561435a434df8492582ed6f7c04b939929982e98c1f24baf03f64736f6c63430008130033",
  "linkReferences": {},
  "deployedLinkReferences": {}
}